{
  "contractName": "Contribution",
  "abi": [
    {
      "constant": true,
      "inputs": [],
      "name": "PRICE_STAGE_TWO",
      "outputs": [
        {
          "name": "",
          "type": "uint256"
        }
      ],
      "payable": false,
      "type": "function"
    },
    {
      "constant": true,
      "inputs": [],
      "name": "publicEndTime",
      "outputs": [
        {
          "name": "",
          "type": "uint256"
        }
      ],
      "payable": false,
      "type": "function"
    },
    {
      "constant": true,
      "inputs": [],
      "name": "matchpoolAddress",
      "outputs": [
        {
          "name": "",
          "type": "address"
        }
      ],
      "payable": false,
      "type": "function"
    },
    {
      "constant": true,
      "inputs": [],
      "name": "ALLOC_NEW_USERS",
      "outputs": [
        {
          "name": "",
          "type": "uint256"
        }
      ],
      "payable": false,
      "type": "function"
    },
    {
      "constant": true,
      "inputs": [],
      "name": "btcsAddress",
      "outputs": [
        {
          "name": "",
          "type": "address"
        }
      ],
      "payable": false,
      "type": "function"
    },
    {
      "constant": true,
      "inputs": [],
      "name": "MAX_SUPPLY",
      "outputs": [
        {
          "name": "",
          "type": "uint256"
        }
      ],
      "payable": false,
      "type": "function"
    },
    {
      "constant": true,
      "inputs": [],
      "name": "STAGE_FOUR_TIME_END",
      "outputs": [
        {
          "name": "",
          "type": "uint256"
        }
      ],
      "payable": false,
      "type": "function"
    },
    {
      "constant": true,
      "inputs": [],
      "name": "ALLOC_LIQUID_TEAM",
      "outputs": [
        {
          "name": "",
          "type": "uint256"
        }
      ],
      "payable": false,
      "type": "function"
    },
    {
      "constant": true,
      "inputs": [],
      "name": "multisigAddress",
      "outputs": [
        {
          "name": "",
          "type": "address"
        }
      ],
      "payable": false,
      "type": "function"
    },
    {
      "constant": true,
      "inputs": [],
      "name": "ALLOC_BOUNTIES",
      "outputs": [
        {
          "name": "",
          "type": "uint256"
        }
      ],
      "payable": false,
      "type": "function"
    },
    {
      "constant": true,
      "inputs": [],
      "name": "ALLOC_ILLIQUID_TEAM",
      "outputs": [
        {
          "name": "",
          "type": "uint256"
        }
      ],
      "payable": false,
      "type": "function"
    },
    {
      "constant": true,
      "inputs": [],
      "name": "publicStartTime",
      "outputs": [
        {
          "name": "",
          "type": "uint256"
        }
      ],
      "payable": false,
      "type": "function"
    },
    {
      "constant": true,
      "inputs": [],
      "name": "STAGE_TWO_TIME_END",
      "outputs": [
        {
          "name": "",
          "type": "uint256"
        }
      ],
      "payable": false,
      "type": "function"
    },
    {
      "constant": true,
      "inputs": [],
      "name": "gupSold",
      "outputs": [
        {
          "name": "",
          "type": "uint256"
        }
      ],
      "payable": false,
      "type": "function"
    },
    {
      "constant": true,
      "inputs": [],
      "name": "STAGE_ONE_TIME_END",
      "outputs": [
        {
          "name": "",
          "type": "uint256"
        }
      ],
      "payable": false,
      "type": "function"
    },
    {
      "constant": true,
      "inputs": [],
      "name": "ALLOC_CROWDSALE",
      "outputs": [
        {
          "name": "",
          "type": "uint256"
        }
      ],
      "payable": false,
      "type": "function"
    },
    {
      "constant": true,
      "inputs": [],
      "name": "privateStartTime",
      "outputs": [
        {
          "name": "",
          "type": "uint256"
        }
      ],
      "payable": false,
      "type": "function"
    },
    {
      "constant": true,
      "inputs": [],
      "name": "ownerAddress",
      "outputs": [
        {
          "name": "",
          "type": "address"
        }
      ],
      "payable": false,
      "type": "function"
    },
    {
      "constant": true,
      "inputs": [],
      "name": "PRICE_STAGE_ONE",
      "outputs": [
        {
          "name": "",
          "type": "uint256"
        }
      ],
      "payable": false,
      "type": "function"
    },
    {
      "constant": true,
      "inputs": [],
      "name": "gupToken",
      "outputs": [
        {
          "name": "",
          "type": "address"
        }
      ],
      "payable": false,
      "type": "function"
    },
    {
      "constant": true,
      "inputs": [],
      "name": "halted",
      "outputs": [
        {
          "name": "",
          "type": "bool"
        }
      ],
      "payable": false,
      "type": "function"
    },
    {
      "constant": true,
      "inputs": [],
      "name": "PRICE_STAGE_FOUR",
      "outputs": [
        {
          "name": "",
          "type": "uint256"
        }
      ],
      "payable": false,
      "type": "function"
    },
    {
      "constant": true,
      "inputs": [],
      "name": "etherRaised",
      "outputs": [
        {
          "name": "",
          "type": "uint256"
        }
      ],
      "payable": false,
      "type": "function"
    },
    {
      "constant": true,
      "inputs": [],
      "name": "BTCS_PORTION_MAX",
      "outputs": [
        {
          "name": "",
          "type": "uint256"
        }
      ],
      "payable": false,
      "type": "function"
    },
    {
      "constant": true,
      "inputs": [],
      "name": "PRICE_STAGE_THREE",
      "outputs": [
        {
          "name": "",
          "type": "uint256"
        }
      ],
      "payable": false,
      "type": "function"
    },
    {
      "constant": true,
      "inputs": [],
      "name": "PRICE_BTCS",
      "outputs": [
        {
          "name": "",
          "type": "uint256"
        }
      ],
      "payable": false,
      "type": "function"
    },
    {
      "constant": true,
      "inputs": [],
      "name": "STAGE_THREE_TIME_END",
      "outputs": [
        {
          "name": "",
          "type": "uint256"
        }
      ],
      "payable": false,
      "type": "function"
    },
    {
      "constant": true,
      "inputs": [],
      "name": "btcsPortionTotal",
      "outputs": [
        {
          "name": "",
          "type": "uint256"
        }
      ],
      "payable": false,
      "type": "function"
    },
    {
      "inputs": [
        {
          "name": "_btcs",
          "type": "address"
        },
        {
          "name": "_multisig",
          "type": "address"
        },
        {
          "name": "_matchpool",
          "type": "address"
        },
        {
          "name": "_publicStartTime",
          "type": "uint256"
        },
        {
          "name": "_privateStartTime",
          "type": "uint256"
        }
      ],
      "payable": false,
      "type": "constructor"
    },
    {
      "payable": true,
      "type": "fallback"
    },
    {
      "anonymous": false,
      "inputs": [
        {
          "indexed": false,
          "name": "_amount",
          "type": "uint256"
        }
      ],
      "name": "PreBuy",
      "type": "event"
    },
    {
      "anonymous": false,
      "inputs": [
        {
          "indexed": true,
          "name": "_recipient",
          "type": "address"
        },
        {
          "indexed": false,
          "name": "_amount",
          "type": "uint256"
        }
      ],
      "name": "Buy",
      "type": "event"
    },
    {
      "constant": false,
      "inputs": [
        {
          "name": "_halted",
          "type": "bool"
        }
      ],
      "name": "toggleHalt",
      "outputs": [],
      "payable": false,
      "type": "function"
    },
    {
      "constant": true,
      "inputs": [],
      "name": "getPriceRate",
      "outputs": [
        {
          "name": "o_rate",
          "type": "uint256"
        }
      ],
      "payable": false,
      "type": "function"
    },
    {
      "constant": false,
      "inputs": [],
      "name": "preBuy",
      "outputs": [],
      "payable": true,
      "type": "function"
    },
    {
      "constant": false,
      "inputs": [],
      "name": "drain",
      "outputs": [],
      "payable": false,
      "type": "function"
    }
  ],
  "bytecode": "0x6060604052341561000c57fe5b60405160a0806123c6833981016040528080519060200190919080519060200190919080519060200190919080519060200190919080519060200190919050505b33600660006101000a81548173ffffffffffffffffffffffffffffffffffffffff021916908373ffffffffffffffffffffffffffffffffffffffff16021790555081600081905550806001819055506224ea00820160028190555084600360006101000a81548173ffffffffffffffffffffffffffffffffffffffff021916908373ffffffffffffffffffffffffffffffffffffffff16021790555083600460006101000a81548173ffffffffffffffffffffffffffffffffffffffff021916908373ffffffffffffffffffffffffffffffffffffffff16021790555082600560006101000a81548173ffffffffffffffffffffffffffffffffffffffff021916908373ffffffffffffffffffffffffffffffffffffffff16021790555030600254610177610635565b808373ffffffffffffffffffffffffffffffffffffffff1673ffffffffffffffffffffffffffffffffffffffff16815260200182815260200192505050604051809103906000f08015156101c757fe5b600760006101000a81548173ffffffffffffffffffffffffffffffffffffffff021916908373ffffffffffffffffffffffffffffffffffffffff160217905550600760009054906101000a900473ffffffffffffffffffffffffffffffffffffffff1673ffffffffffffffffffffffffffffffffffffffff1663215cb8df600560009054906101000a900473ffffffffffffffffffffffffffffffffffffffff166401dcd650006000604051602001526040518363ffffffff167c0100000000000000000000000000000000000000000000000000000000028152600401808373ffffffffffffffffffffffffffffffffffffffff1673ffffffffffffffffffffffffffffffffffffffff16815260200182815260200192505050602060405180830381600087803b15156102f857fe5b60325a03f1151561030557fe5b5050506040518051905050600760009054906101000a900473ffffffffffffffffffffffffffffffffffffffff1673ffffffffffffffffffffffffffffffffffffffff16636a10d4d6600560009054906101000a900473ffffffffffffffffffffffffffffffffffffffff1663773594006000604051602001526040518363ffffffff167c0100000000000000000000000000000000000000000000000000000000028152600401808373ffffffffffffffffffffffffffffffffffffffff1673ffffffffffffffffffffffffffffffffffffffff16815260200182815260200192505050602060405180830381600087803b151561040057fe5b60325a03f1151561040d57fe5b5050506040518051905050600760009054906101000a900473ffffffffffffffffffffffffffffffffffffffff1673ffffffffffffffffffffffffffffffffffffffff16636a10d4d6600560009054906101000a900473ffffffffffffffffffffffffffffffffffffffff16640306dc42006000604051602001526040518363ffffffff167c0100000000000000000000000000000000000000000000000000000000028152600401808373ffffffffffffffffffffffffffffffffffffffff1673ffffffffffffffffffffffffffffffffffffffff16815260200182815260200192505050602060405180830381600087803b151561050957fe5b60325a03f1151561051657fe5b5050506040518051905050600760009054906101000a900473ffffffffffffffffffffffffffffffffffffffff1673ffffffffffffffffffffffffffffffffffffffff16636a10d4d6600560009054906101000a900473ffffffffffffffffffffffffffffffffffffffff166403f5476a006000604051602001526040518363ffffffff167c0100000000000000000000000000000000000000000000000000000000028152600401808373ffffffffffffffffffffffffffffffffffffffff1673ffffffffffffffffffffffffffffffffffffffff16815260200182815260200192505050602060405180830381600087803b151561061257fe5b60325a03f1151561061f57fe5b50505060405180519050505b5050505050610645565b604051610f3a8061148c83390190565b610e38806106546000396000f30060606040523615610194576000357c0100000000000000000000000000000000000000000000000000000000900463ffffffff168063031f22e7146102425780632c27e581146102685780632d9068ed1461028e57806330238687146102e05780633265c4361461030657806332cb6b0c146103585780634caeebd01461037e578063518b1a33146103a45780635462870d146103ca57806354ecd9941461041c578063565cee48146104425780635fd1bbc4146104685780636698baaa1461048e5780636dbd6689146104b45780636f259077146104da5780637717403b146105005780638a4b08d9146105265780638a7c63c51461054c5780638c346690146105725780638f84aa09146105945780638fd712ae146105e65780639890220b1461060c5780639971c6ce1461061e578063b9b8af0b14610670578063bd8e68c91461069a578063cd72ab69146106c0578063d6f4472d146106e6578063e02f8d331461070c578063eac1e58f14610732578063f514f0f914610758578063f590aacc1461077e578063f8aed03a14610788575b6102405b60006000544210806101ac57506002544210155b156101b657610000565b600b60009054906101000a900460ff16156101d057610000565b6101ea6101db6107ae565b600954640df847580003610828565b90503373ffffffffffffffffffffffffffffffffffffffff167fe3d4187f6ca4248660cc0ac8b8056515bac4a8132be2eca31d6d0cc170722a7e826040518082815260200191505060405180910390a25b5b5b50565b005b341561024a57fe5b6102526109bc565b6040518082815260200191505060405180910390f35b341561027057fe5b6102786109c3565b6040518082815260200191505060405180910390f35b341561029657fe5b61029e6109c9565b604051808273ffffffffffffffffffffffffffffffffffffffff1673ffffffffffffffffffffffffffffffffffffffff16815260200191505060405180910390f35b34156102e857fe5b6102f06109ef565b6040518082815260200191505060405180910390f35b341561030e57fe5b6103166109f8565b604051808273ffffffffffffffffffffffffffffffffffffffff1673ffffffffffffffffffffffffffffffffffffffff16815260200191505060405180910390f35b341561036057fe5b610368610a1e565b6040518082815260200191505060405180910390f35b341561038657fe5b61038e610a27565b6040518082815260200191505060405180910390f35b34156103ac57fe5b6103b4610a2e565b6040518082815260200191505060405180910390f35b34156103d257fe5b6103da610a37565b604051808273ffffffffffffffffffffffffffffffffffffffff1673ffffffffffffffffffffffffffffffffffffffff16815260200191505060405180910390f35b341561042457fe5b61042c610a5d565b6040518082815260200191505060405180910390f35b341561044a57fe5b610452610a65565b6040518082815260200191505060405180910390f35b341561047057fe5b610478610a6e565b6040518082815260200191505060405180910390f35b341561049657fe5b61049e610a74565b6040518082815260200191505060405180910390f35b34156104bc57fe5b6104c4610a7b565b6040518082815260200191505060405180910390f35b34156104e257fe5b6104ea610a81565b6040518082815260200191505060405180910390f35b341561050857fe5b610510610a87565b6040518082815260200191505060405180910390f35b341561052e57fe5b6105366107ae565b6040518082815260200191505060405180910390f35b341561055457fe5b61055c610a90565b6040518082815260200191505060405180910390f35b341561057a57fe5b61059260048080351515906020019091905050610a96565b005b341561059c57fe5b6105a4610b11565b604051808273ffffffffffffffffffffffffffffffffffffffff1673ffffffffffffffffffffffffffffffffffffffff16815260200191505060405180910390f35b34156105ee57fe5b6105f6610b37565b6040518082815260200191505060405180910390f35b341561061457fe5b61061c610b3e565b005b341561062657fe5b61062e610c1a565b604051808273ffffffffffffffffffffffffffffffffffffffff1673ffffffffffffffffffffffffffffffffffffffff16815260200191505060405180910390f35b341561067857fe5b610680610c40565b604051808215151515815260200191505060405180910390f35b34156106a257fe5b6106aa610c53565b6040518082815260200191505060405180910390f35b34156106c857fe5b6106d0610c5a565b6040518082815260200191505060405180910390f35b34156106ee57fe5b6106f6610c60565b6040518082815260200191505060405180910390f35b341561071457fe5b61071c610c6c565b6040518082815260200191505060405180910390f35b341561073a57fe5b610742610c73565b6040518082815260200191505060405180910390f35b341561076057fe5b610768610c7a565b6040518082815260200191505060405180910390f35b610786610c81565b005b341561079057fe5b610798610d7e565b6040518082815260200191505060405180910390f35b6000610e1060005401421115156107ca576201d4c09050610825565b6203f48060005401421115156107e5576201adb09050610825565b62127500600054014211151561080057620186a09050610825565b6224ea00600054014211151561081b5762015f909050610825565b60009050610825565b5b90565b60006108456108373485610d84565b670de0b6b3a7640000610db9565b90508181111561085457610000565b600460009054906101000a900473ffffffffffffffffffffffffffffffffffffffff1673ffffffffffffffffffffffffffffffffffffffff166108fc349081150290604051809050600060405180830381858888f1935050505015156108b957610000565b600760009054906101000a900473ffffffffffffffffffffffffffffffffffffffff1673ffffffffffffffffffffffffffffffffffffffff16636a10d4d633836000604051602001526040518363ffffffff167c0100000000000000000000000000000000000000000000000000000000028152600401808373ffffffffffffffffffffffffffffffffffffffff1673ffffffffffffffffffffffffffffffffffffffff16815260200182815260200192505050602060405180830381600087803b151561098357fe5b60325a03f1151561099057fe5b5050506040518051905015156109a557610000565b806009600082825401925050819055505b92915050565b6201adb081565b60025481565b600560009054906101000a900473ffffffffffffffffffffffffffffffffffffffff1681565b6403f5476a0081565b600360009054906101000a900473ffffffffffffffffffffffffffffffffffffffff1681565b64174876e80081565b6224ea0081565b640306dc420081565b600460009054906101000a900473ffffffffffffffffffffffffffffffffffffffff1681565b637735940081565b6401dcd6500081565b60005481565b6203f48081565b60095481565b610e1081565b640df847580081565b60015481565b600660009054906101000a900473ffffffffffffffffffffffffffffffffffffffff1673ffffffffffffffffffffffffffffffffffffffff163373ffffffffffffffffffffffffffffffffffffffff16141515610af257610000565b80600b60006101000a81548160ff0219169083151502179055505b5b50565b600660009054906101000a900473ffffffffffffffffffffffffffffffffffffffff1681565b6201d4c081565b600660009054906101000a900473ffffffffffffffffffffffffffffffffffffffff1673ffffffffffffffffffffffffffffffffffffffff163373ffffffffffffffffffffffffffffffffffffffff16141515610b9a57610000565b600660009054906101000a900473ffffffffffffffffffffffffffffffffffffffff1673ffffffffffffffffffffffffffffffffffffffff166108fc3073ffffffffffffffffffffffffffffffffffffffff16319081150290604051809050600060405180830381858888f193505050501515610c1657610000565b5b5b565b600760009054906101000a900473ffffffffffffffffffffffffffffffffffffffff1681565b600b60009054906101000a900460ff1681565b62015f9081565b60085481565b6201d4c06201e8480281565b620186a081565b6201d4c081565b6212750081565b600060005442101580610c95575060015442105b15610c9f57610000565b600360009054906101000a900473ffffffffffffffffffffffffffffffffffffffff1673ffffffffffffffffffffffffffffffffffffffff163373ffffffffffffffffffffffffffffffffffffffff16141515610cfb57610000565b600b60009054906101000a900460ff1615610d1557610000565b610d2e6201d4c0600a546201d4c06201e8480203610828565b905080600a600082825401925050819055507f9e352721883879ced8efbcaca8e7316a3367205e490f0829362d23c63819e8ee816040518082815260200191505060405180910390a15b5b5b5b50565b600a5481565b600060008284029050610dae6000851480610da95750838583811515610da657fe5b04145b610dfc565b8091505b5092915050565b60006000610dc960008411610dfc565b8284811515610dd457fe5b049050610df18385811515610de557fe5b06828502018514610dfc565b8091505b5092915050565b801515610e0857610000565b5b505600a165627a7a72305820a7baca94eef0a5b7138dc35f6af08fb76f3ce4ad602540f6606b9579b331078400296060604052341561000c57fe5b604051604080610f3a833981016040528080519060200190919080519060200190919050505b8060038190555081600460006101000a81548173ffffffffffffffffffffffffffffffffffffffff021916908373ffffffffffffffffffffffffffffffffffffffff1602179055505b50505b610ead8061008d6000396000f300606060405236156100c3576000357c0100000000000000000000000000000000000000000000000000000000900463ffffffff16806307546172146100d8578063095ea7b31461012a57806318160ddd14610181578063215cb8df146101a757806323b872dd146101fe578063284cb916146102745780636a10d4d61461029a57806370a08231146102f157806378d3633b1461033b578063a9059cbb14610385578063d754f0ac146103dc578063dd62ed3e14610402578063e14195461461046b575b34156100cb57fe5b6100d65b610000565b565b005b34156100e057fe5b6100e8610495565b604051808273ffffffffffffffffffffffffffffffffffffffff1673ffffffffffffffffffffffffffffffffffffffff16815260200191505060405180910390f35b341561013257fe5b610167600480803573ffffffffffffffffffffffffffffffffffffffff169060200190919080359060200190919050506104bb565b604051808215151515815260200191505060405180910390f35b341561018957fe5b6101916105ae565b6040518082815260200191505060405180910390f35b34156101af57fe5b6101e4600480803573ffffffffffffffffffffffffffffffffffffffff169060200190919080359060200190919050506105b4565b604051808215151515815260200191505060405180910390f35b341561020657fe5b61025a600480803573ffffffffffffffffffffffffffffffffffffffff1690602001909190803573ffffffffffffffffffffffffffffffffffffffff1690602001909190803590602001909190505061068c565b604051808215151515815260200191505060405180910390f35b341561027c57fe5b6102846106b3565b6040518082815260200191505060405180910390f35b34156102a257fe5b6102d7600480803573ffffffffffffffffffffffffffffffffffffffff169060200190919080359060200190919050506106b9565b604051808215151515815260200191505060405180910390f35b34156102f957fe5b610325600480803573ffffffffffffffffffffffffffffffffffffffff16906020019091905050610791565b6040518082815260200191505060405180910390f35b341561034357fe5b61036f600480803573ffffffffffffffffffffffffffffffffffffffff169060200190919050506107db565b6040518082815260200191505060405180910390f35b341561038d57fe5b6103c2600480803573ffffffffffffffffffffffffffffffffffffffff169060200190919080359060200190919050506107f3565b604051808215151515815260200191505060405180910390f35b34156103e457fe5b6103ec610818565b6040518082815260200191505060405180910390f35b341561040a57fe5b610455600480803573ffffffffffffffffffffffffffffffffffffffff1690602001909190803573ffffffffffffffffffffffffffffffffffffffff16906020019091905050610820565b6040518082815260200191505060405180910390f35b341561047357fe5b61047b6108a8565b604051808215151515815260200191505060405180910390f35b600460009054906101000a900473ffffffffffffffffffffffffffffffffffffffff1681565b600081600160003373ffffffffffffffffffffffffffffffffffffffff1673ffffffffffffffffffffffffffffffffffffffff16815260200190815260200160002060008573ffffffffffffffffffffffffffffffffffffffff1673ffffffffffffffffffffffffffffffffffffffff168152602001908152602001600020819055508273ffffffffffffffffffffffffffffffffffffffff163373ffffffffffffffffffffffffffffffffffffffff167f8c5be1e5ebec7d5bd14f71427d1e84f3dd0314c0f7b2291e5b200ac8c7c3b925846040518082815260200191505060405180910390a3600190505b92915050565b60025481565b6000600354421015156105c657610000565b600460009054906101000a900473ffffffffffffffffffffffffffffffffffffffff1673ffffffffffffffffffffffffffffffffffffffff163373ffffffffffffffffffffffffffffffffffffffff1614151561062257610000565b81600560008573ffffffffffffffffffffffffffffffffffffffff1673ffffffffffffffffffffffffffffffffffffffff1681526020019081526020016000206000828254019250508190555081600260008282540192505081905550600190505b5b5b92915050565b600060035442101561069d57610000565b6106a8848484610999565b90505b5b9392505050565b60035481565b6000600354421015156106cb57610000565b600460009054906101000a900473ffffffffffffffffffffffffffffffffffffffff1673ffffffffffffffffffffffffffffffffffffffff163373ffffffffffffffffffffffffffffffffffffffff1614151561072757610000565b81600060008573ffffffffffffffffffffffffffffffffffffffff1673ffffffffffffffffffffffffffffffffffffffff1681526020019081526020016000206000828254019250508190555081600260008282540192505081905550600190505b5b5b92915050565b6000600060008373ffffffffffffffffffffffffffffffffffffffff1673ffffffffffffffffffffffffffffffffffffffff1681526020019081526020016000205490505b919050565b60056020528060005260406000206000915090505481565b600060035442101561080457610000565b61080e8383610c99565b90505b5b92915050565b6301e1338081565b6000600160008473ffffffffffffffffffffffffffffffffffffffff1673ffffffffffffffffffffffffffffffffffffffff16815260200190815260200160002060008373ffffffffffffffffffffffffffffffffffffffff1673ffffffffffffffffffffffffffffffffffffffff1681526020019081526020016000205490505b92915050565b60006301e13380600354014210156108bf57610000565b600560003373ffffffffffffffffffffffffffffffffffffffff1673ffffffffffffffffffffffffffffffffffffffff16815260200190815260200160002054600060003373ffffffffffffffffffffffffffffffffffffffff1673ffffffffffffffffffffffffffffffffffffffff168152602001908152602001600020600082825401925050819055506000600560003373ffffffffffffffffffffffffffffffffffffffff1673ffffffffffffffffffffffffffffffffffffffff16815260200190815260200160002081905550600190505b5b90565b6000838280600060008473ffffffffffffffffffffffffffffffffffffffff1673ffffffffffffffffffffffffffffffffffffffff16815260200190815260200160002054101515610c8f578484600060008373ffffffffffffffffffffffffffffffffffffffff1673ffffffffffffffffffffffffffffffffffffffff1681526020019081526020016000205481600060008573ffffffffffffffffffffffffffffffffffffffff1673ffffffffffffffffffffffffffffffffffffffff16815260200190815260200160002054011115610c8b5787338780600160008573ffffffffffffffffffffffffffffffffffffffff1673ffffffffffffffffffffffffffffffffffffffff16815260200190815260200160002060008473ffffffffffffffffffffffffffffffffffffffff1673ffffffffffffffffffffffffffffffffffffffff16815260200190815260200160002054101515610c865788600160008d73ffffffffffffffffffffffffffffffffffffffff1673ffffffffffffffffffffffffffffffffffffffff16815260200190815260200160002060003373ffffffffffffffffffffffffffffffffffffffff1673ffffffffffffffffffffffffffffffffffffffff1681526020019081526020016000206000828254039250508190555088600060008d73ffffffffffffffffffffffffffffffffffffffff1673ffffffffffffffffffffffffffffffffffffffff1681526020019081526020016000206000828254039250508190555088600060008c73ffffffffffffffffffffffffffffffffffffffff1673ffffffffffffffffffffffffffffffffffffffff168152602001908152602001600020600082825401925050819055508973ffffffffffffffffffffffffffffffffffffffff168b73ffffffffffffffffffffffffffffffffffffffff167fddf252ad1be2c89b69c2b068fc378daa952ba7f163c4a11628f55a4df523b3ef8b6040518082815260200191505060405180910390a3600197505b5b5b5050505b5b50505b5b50509392505050565b6000338280600060008473ffffffffffffffffffffffffffffffffffffffff1673ffffffffffffffffffffffffffffffffffffffff16815260200190815260200160002054101515610e78578484600060008373ffffffffffffffffffffffffffffffffffffffff1673ffffffffffffffffffffffffffffffffffffffff1681526020019081526020016000205481600060008573ffffffffffffffffffffffffffffffffffffffff1673ffffffffffffffffffffffffffffffffffffffff16815260200190815260200160002054011115610e745785600060003373ffffffffffffffffffffffffffffffffffffffff1673ffffffffffffffffffffffffffffffffffffffff1681526020019081526020016000206000828254039250508190555085600060008973ffffffffffffffffffffffffffffffffffffffff1673ffffffffffffffffffffffffffffffffffffffff168152602001908152602001600020600082825401925050819055508673ffffffffffffffffffffffffffffffffffffffff163373ffffffffffffffffffffffffffffffffffffffff167fddf252ad1be2c89b69c2b068fc378daa952ba7f163c4a11628f55a4df523b3ef886040518082815260200191505060405180910390a3600194505b5b5b50505b5b5050929150505600a165627a7a72305820d07b0f301a3accbff99906e4e62104a704aba849870cc85d9e413f8b2e8ce5db0029",
  "source": "pragma solidity ^0.4.6;\r\n\r\nimport \"./GUPToken.sol\";\r\nimport \"./SafeMath.sol\";\r\n\r\ncontract Contribution is SafeMath {\r\n\r\n\t//FIELDS\r\n\r\n\t//CONSTANTS\r\n\t//Time limits\r\n\tuint public constant STAGE_ONE_TIME_END = 1 hours;\r\n\tuint public constant STAGE_TWO_TIME_END = 72 hours;\r\n\tuint public constant STAGE_THREE_TIME_END = 2 weeks;\r\n\tuint public constant STAGE_FOUR_TIME_END = 4 weeks;\r\n\t//Prices of GUP\r\n\tuint public constant PRICE_STAGE_ONE = 120000;\r\n\tuint public constant PRICE_STAGE_TWO = 110000;\r\n\tuint public constant PRICE_STAGE_THREE = 100000;\r\n\tuint public constant PRICE_STAGE_FOUR = 90000;\r\n\tuint public constant PRICE_BTCS = 120000;\r\n\t//GUP Token Limits\r\n\tuint public constant MAX_SUPPLY =        100000000000;\r\n\tuint public constant ALLOC_ILLIQUID_TEAM = 8000000000;\r\n\tuint public constant ALLOC_LIQUID_TEAM =  13000000000;\r\n\tuint public constant ALLOC_BOUNTIES =      2000000000;\r\n\tuint public constant ALLOC_NEW_USERS =    17000000000;\r\n\tuint public constant ALLOC_CROWDSALE =    60000000000;\r\n\tuint public constant BTCS_PORTION_MAX = 125000 * PRICE_BTCS;\r\n\t//ASSIGNED IN INITIALIZATION\r\n\t//Start and end times\r\n\tuint public publicStartTime; //Time in seconds public crowd fund starts.\r\n\tuint public privateStartTime; //Time in seconds when BTCSuisse can purchase up to 125000 ETH worth of GUP;\r\n\tuint public publicEndTime; //Time in seconds crowdsale ends\r\n\t//Special Addresses\r\n\taddress public btcsAddress; //Address used by BTCSuisse\r\n\taddress public multisigAddress; //Address to which all ether flows.\r\n\taddress public matchpoolAddress; //Address to which ALLOC_BOUNTIES, ALLOC_LIQUID_TEAM, ALLOC_NEW_USERS, ALLOC_ILLIQUID_TEAM is sent to.\r\n\taddress public ownerAddress; //Address of the contract owner. Can halt the crowdsale.\r\n\t//Contracts\r\n\tGUPToken public gupToken; //External token contract hollding the GUP\r\n\t//Running totals\r\n\tuint public etherRaised; //Total Ether raised.\r\n\tuint public gupSold; //Total GUP created\r\n\tuint public btcsPortionTotal; //Total of Tokens purchased by BTC Suisse. Not to exceed BTCS_PORTION_MAX.\r\n\t//booleans\r\n\tbool public halted; //halts the crowd sale if true.\r\n\r\n\t//FUNCTION MODIFIERS\r\n\r\n\t//Is currently in the period after the private start time and before the public start time.\r\n\tmodifier is_pre_crowdfund_period() {\r\n\t\tif (now >= publicStartTime || now < privateStartTime) throw;\r\n\t\t_;\r\n\t}\r\n\r\n\t//Is currently the crowdfund period\r\n\tmodifier is_crowdfund_period() {\r\n\t\tif (now < publicStartTime || now >= publicEndTime) throw;\r\n\t\t_;\r\n\t}\r\n\r\n\t//May only be called by BTC Suisse\r\n\tmodifier only_btcs() {\r\n\t\tif (msg.sender != btcsAddress) throw;\r\n\t\t_;\r\n\t}\r\n\r\n\t//May only be called by the owner address\r\n\tmodifier only_owner() {\r\n\t\tif (msg.sender != ownerAddress) throw;\r\n\t\t_;\r\n\t}\r\n\r\n\t//May only be called if the crowdfund has not been halted\r\n\tmodifier is_not_halted() {\r\n\t\tif (halted) throw;\r\n\t\t_;\r\n\t}\r\n\r\n\t// EVENTS\r\n\r\n\tevent PreBuy(uint _amount);\r\n\tevent Buy(address indexed _recipient, uint _amount);\r\n\r\n\r\n\t// FUNCTIONS\r\n\r\n\t//Initialization function. Deploys GUPToken contract assigns values, to all remaining fields, creates first entitlements in the GUP Token contract.\r\n\tfunction Contribution(\r\n\t\taddress _btcs,\r\n\t\taddress _multisig,\r\n\t\taddress _matchpool,\r\n\t\tuint _publicStartTime,\r\n\t\tuint _privateStartTime\r\n\t) {\r\n\t\townerAddress = msg.sender;\r\n\t\tpublicStartTime = _publicStartTime;\r\n\t\tprivateStartTime = _privateStartTime;\r\n\t\tpublicEndTime = _publicStartTime + 4 weeks;\r\n\t\tbtcsAddress = _btcs;\r\n\t\tmultisigAddress = _multisig;\r\n\t\tmatchpoolAddress = _matchpool;\r\n\t\tgupToken = new GUPToken(this, publicEndTime);\r\n\t\tgupToken.createIlliquidToken(matchpoolAddress, ALLOC_ILLIQUID_TEAM);\r\n\t\tgupToken.createToken(matchpoolAddress, ALLOC_BOUNTIES);\r\n\t\tgupToken.createToken(matchpoolAddress, ALLOC_LIQUID_TEAM);\r\n\t\tgupToken.createToken(matchpoolAddress, ALLOC_NEW_USERS);\r\n\t}\r\n\r\n\t//May be used by owner of contract to halt crowdsale and no longer except ether.\r\n\tfunction toggleHalt(bool _halted)\r\n\t\tonly_owner\r\n\t{\r\n\t\thalted = _halted;\r\n\t}\r\n\r\n\t//constant function returns the current GUP price.\r\n\tfunction getPriceRate()\r\n\t\tconstant\r\n\t\treturns (uint o_rate)\r\n\t{\r\n\t\tif (now <= publicStartTime + STAGE_ONE_TIME_END) return PRICE_STAGE_ONE;\r\n\t\tif (now <= publicStartTime + STAGE_TWO_TIME_END) return PRICE_STAGE_TWO;\r\n\t\tif (now <= publicStartTime + STAGE_THREE_TIME_END) return PRICE_STAGE_THREE;\r\n\t\tif (now <= publicStartTime + STAGE_FOUR_TIME_END) return PRICE_STAGE_FOUR;\r\n\t\telse return 0;\r\n\t}\r\n\r\n\t// Given the rate of a purchase and the remaining tokens in this tranche, it\r\n\t// will throw if the sale would take it past the limit of the tranche.\r\n\t// It executes the purchase for the appropriate amount of tokens, which\r\n\t// involves adding it to the total, minting GUP tokens and stashing the\r\n\t// ether.\r\n\t// Returns `amount` in scope as the number of GUP tokens that it will\r\n\t// purchase.\r\n\tfunction processPurchase(uint _rate, uint _remaining)\r\n\t\tinternal\r\n\t\treturns (uint o_amount)\r\n\t{\r\n\t\to_amount = safeDiv(safeMul(msg.value, _rate), 1 ether);\r\n\t\tif (o_amount > _remaining) throw;\r\n\t\tif (!multisigAddress.send(msg.value)) throw;\r\n\t\tif (!gupToken.createToken(msg.sender, o_amount)) throw; //change to match create token\r\n\t\tgupSold += o_amount;\r\n\t}\r\n\r\n\t//Special Function can only be called by BTC Suisse and only during the pre-crowdsale period.\r\n\t//Allows the purchase of up to 125000 Ether worth of GUP Tokens.\r\n\tfunction preBuy()\r\n\t\tpayable\r\n\t\tis_pre_crowdfund_period\r\n\t\tonly_btcs\r\n\t\tis_not_halted\r\n\t{\r\n\t\tuint amount = processPurchase(PRICE_BTCS, BTCS_PORTION_MAX - btcsPortionTotal);\r\n\t\tbtcsPortionTotal += amount;\r\n\t\tPreBuy(amount);\r\n\t}\r\n\r\n\t//Default function called by sending Ether to this address with no arguments.\r\n\t//Results in creation of new GUP Tokens if transaction would not exceed hard limit of GUP Token.\r\n\tfunction()\r\n\t\tpayable\r\n\t\tis_crowdfund_period\r\n\t\tis_not_halted\r\n\t{\r\n\t\tuint amount = processPurchase(getPriceRate(), ALLOC_CROWDSALE - gupSold);\r\n\t\tBuy(msg.sender, amount);\r\n\t}\r\n\r\n\t//failsafe drain\r\n\tfunction drain()\r\n\t\tonly_owner\r\n\t{\r\n\t\tif (!ownerAddress.send(this.balance)) throw;\r\n\t}\r\n}\r\n",
  "sourcePath": "C:/src/ico-contracts/matchpool/contracts/Contribution.sol",
  "compiler": {
    "name": "solc",
    "version": "0.4.9+commit.364da425.Emscripten.clang"
  },
  "schemaVersion": "3.0.0-beta.2",
  "updatedAt": "2019-07-24T16:59:22.865Z"
}