{
  "contractName": "Migrations",
  "abi": [
    {
      "constant": true,
      "inputs": [],
      "name": "last_completed_migration",
      "outputs": [
        {
          "name": "",
          "type": "uint256"
        }
      ],
      "payable": false,
      "type": "function"
    },
    {
      "constant": true,
      "inputs": [],
      "name": "owner",
      "outputs": [
        {
          "name": "",
          "type": "address"
        }
      ],
      "payable": false,
      "type": "function"
    },
    {
      "inputs": [],
      "payable": false,
      "type": "constructor"
    },
    {
      "constant": false,
      "inputs": [
        {
          "name": "completed",
          "type": "uint256"
        }
      ],
      "name": "setCompleted",
      "outputs": [],
      "payable": false,
      "type": "function"
    },
    {
      "constant": false,
      "inputs": [
        {
          "name": "new_address",
          "type": "address"
        }
      ],
      "name": "upgrade",
      "outputs": [],
      "payable": false,
      "type": "function"
    }
  ],
  "bytecode": "0x6060604052341561000c57fe5b5b33600060006101000a81548173ffffffffffffffffffffffffffffffffffffffff021916908373ffffffffffffffffffffffffffffffffffffffff1602179055505b5b6102c48061005f6000396000f30060606040526000357c0100000000000000000000000000000000000000000000000000000000900463ffffffff1680630900f0101461005c578063445df0ac146100925780638da5cb5b146100b8578063fdacd5761461010a575bfe5b341561006457fe5b610090600480803573ffffffffffffffffffffffffffffffffffffffff1690602001909190505061012a565b005b341561009a57fe5b6100a2610209565b6040518082815260200191505060405180910390f35b34156100c057fe5b6100c861020f565b604051808273ffffffffffffffffffffffffffffffffffffffff1673ffffffffffffffffffffffffffffffffffffffff16815260200191505060405180910390f35b341561011257fe5b6101286004808035906020019091905050610235565b005b6000600060009054906101000a900473ffffffffffffffffffffffffffffffffffffffff1673ffffffffffffffffffffffffffffffffffffffff163373ffffffffffffffffffffffffffffffffffffffff161415610204578190508073ffffffffffffffffffffffffffffffffffffffff1663fdacd5766001546040518263ffffffff167c010000000000000000000000000000000000000000000000000000000002815260040180828152602001915050600060405180830381600087803b15156101f257fe5b60325a03f115156101ff57fe5b5050505b5b5b5050565b60015481565b600060009054906101000a900473ffffffffffffffffffffffffffffffffffffffff1681565b600060009054906101000a900473ffffffffffffffffffffffffffffffffffffffff1673ffffffffffffffffffffffffffffffffffffffff163373ffffffffffffffffffffffffffffffffffffffff16141561029457806001819055505b5b5b505600a165627a7a72305820df48bab2af5485c2d2750b94bdde6f0d7db608f17ab35014207ff35f6215828c0029",
  "source": "pragma solidity ^0.4.6;\r\ncontract Migrations {\r\n  address public owner;\r\n  uint public last_completed_migration;\r\n\r\n  modifier restricted() {\r\n    if (msg.sender == owner) _;\r\n  }\r\n\r\n  function Migrations() {\r\n    owner = msg.sender;\r\n  }\r\n\r\n  function setCompleted(uint completed) restricted {\r\n    last_completed_migration = completed;\r\n  }\r\n\r\n  function upgrade(address new_address) restricted {\r\n    Migrations upgraded = Migrations(new_address);\r\n    upgraded.setCompleted(last_completed_migration);\r\n  }\r\n}",
  "sourcePath": "C:/src/ico-contracts/matchpool/contracts/Migrations.sol",
  "compiler": {
    "name": "solc",
    "version": "0.4.9+commit.364da425.Emscripten.clang"
  },
  "schemaVersion": "3.0.0-beta.2",
  "updatedAt": "2019-07-24T16:59:22.866Z"
}